:020000040800F2
:1000000000000220CD0A0008A90A0008AB0A000877
:10001000AD0A0008AF0A0008B10A0008000000009D
:10002000000000000000000000000000B30A00080B
:10003000B50A000800000000B70A0008B90A000865
:100040001D0B00081D0B00081D0B00081D0B0008F0
:100050001D0B00081D0B00081D0B00081D0B0008E0
:100060001D0B00081D0B00081D0B00081D0B0008D0
:100070001D0B00081D0B00081D0B00081D0B0008C0
:100080001D0B00081D0B00081D0B00081D0B0008B0
:100090001D0B00081D0B00081D0B00081D0B0008A0
:1000A0001D0B00081D0B00081D0B00081D0B000890
:1000B0001D0B00081D0B00081D0B00081D0B000880
:1000C0001D0B00081D0B00081D0B00081D0B000870
:1000D0001D0B00081D0B00081D0B00081D0B000860
:1000E0001D0B00081D0B00081D0B00081D0B000850
:1000F0001D0B00081D0B00081D0B00081D0B000840
:100100001D0B00081D0B00081D0B00081D0B00082F
:100110001D0B00081D0B00081D0B00081D0B00081F
:100120001D0B00081D0B00081D0B00081D0B00080F
:100130001D0B00081D0B00081D0B00081D0B0008FF
:100140001D0B00081D0B00081D0B00081D0B0008EF
:100150001D0B00081D0B00081D0B00081D0B0008DF
:100160001D0B00081D0B00081D0B00081D0B0008CF
:100170001D0B00081D0B00081D0B000800000000EF
:080180001D0B00081D0B000817
:1001880010B5054C237833B9044B13B10448AFF3C9
:1001980000800123237010BDAC0400200000000083
:1001A800281E030808B5034B1BB103490348AFF3E6
:1001B800008008BD00000000B0040020281E0308CD
:1001C8007BB972B90029BEBF00204FF0004106E09C
:1001D80008BF00281CBF6FF000414FF0FF3000F04F
:1001E800BFB9ADF1080C6DE904CE002909DB002B7D
:1001F8001ADB00F04DF8DDF804E0DDE9022304B075
:100208007047404261EB4101002B1BDB00F040F8D6
:10021800DDF804E0DDE9022304B0404261EB41016E
:10022800524263EB43037047524263EB430300F0CF
:100238002FF8DDF804E0DDE9022304B0404261EB69
:1002480041017047524263EB430300F021F8DDF8A7
:1002580004E0DDE9022304B0524263EB4303704734
:1002680053B94AB9002908BF00281CBF4FF0FF3115
:100278004FF0FF3000F074B9ADF1080C6DE904CE11
:1002880000F006F8DDF804E0DDE9022304B0704769
:100298002DE9F047089E0D4604468846002B4DD1AF
:1002A8008A42944668D9B2FA82F252B101FA02F34C
:1002B800C2F1200120FA01F10CFA02FC41EA03081C
:1002C80094404FEA1C45210CB8FBF5FE1FFA8CF749
:1002D80005FB1E8341EA03430EFB07F199420BD944
:1002E8001CEB03030EF1FF3080F01E81994240F2AF
:1002F8001B81AEF1020E63445B1AA4B2B3FBF5F0A6
:1003080005FB103344EA034400FB07F7A7420AD968
:100318001CEB040400F1FF3380F00881A74240F28F
:10032800058164440238E41B40EA0E4000211EB1F6
:10033800D4400023C6E90043BDE8F0878B4208D9C2
:10034800002E00F0EE800021C6E900050846BDE851
:10035800F087B3FA83F100294AD1AB4202D3824233
:1003680000F2F980841A65EB030301209846002EF9
:10037800E2D0C6E90048DFE702B9FFDEB2FA82F24E
:10038800002A40F09180A1EB0C054FEA1C471FFAA8
:100398008CFE0121B5FBF7F307FB1350250C45EA4A
:1003A80000450EFB03F0A84208D91CEB050503F134
:1003B800FF3802D2A84200F2CB8043462D1AA4B2DD
:1003C800B5FBF7F007FB105544EA05440EFB00FEA9
:1003D800A64508D91CEB040400F1FF3502D2A64556
:1003E80000F2BB802846A4EB0E0440EA03409EE7D7
:1003F800C1F120078B4022FA07FC4CEA030C20FAD3
:1004080007F405FA01F31C43FD404FEA1C4900FAC2
:1004180001F3B5FBF9F8200C1FFA8CFE09FB1855FF
:1004280040EA054508FB0EF0A84202FA01F20BD992
:100438001CEB050508F1FF3A80F08880A84240F2DD
:100448008580A8F1020865442D1AA4B2B5FBF9F01D
:1004580009FB105544EA054500FB0EFEAE4508D9D8
:100468001CEB050500F1FF346CD2AE456AD90238A1
:10047800654440EA0840A0FB0294A5EB0E05A5429E
:10048800C846A64656D353D05EB1B3EB080265EB17
:100498000E0505FA07F722FA01F3CD401F43C6E916
:1004A80000750021BDE8F087C2F1200320FA03F1AE
:1004B8000CFA02FC25FA03F395400D434FEA1C475A
:1004C8001FFA8CFEB3FBF7F107FB11302B0C43EA44
:1004D800004301FB0EF0984204FA02F408D91CEB21
:1004E800030301F1FF382FD298422DD90239634412
:1004F8001B1AADB2B3FBF7F007FB103345EA03450F
:1005080000FB0EF3AB4208D91CEB050500F1FF38E0
:1005180016D2AB4214D902386544ED1A40EA0141BB
:1005280038E73146304607E78646E5E61846FAE6F4
:100538004B45A9D2B9EB020864EB0C0E0138A3E7CE
:100548004046EAE7204694E74146D1E7D0467BE7B4
:10055800023B654432E7084609E76444023842E74B
:10056800704700BF844641EA000313F003036DD1CE
:10057800403A41D351F8043B40F8043B51F8043B5E
:1005880040F8043B51F8043B40F8043B51F8043B65
:1005980040F8043B51F8043B40F8043B51F8043B55
:1005A80040F8043B51F8043B40F8043B51F8043B45
:1005B80040F8043B51F8043B40F8043B51F8043B35
:1005C80040F8043B51F8043B40F8043B51F8043B25
:1005D80040F8043B51F8043B40F8043B51F8043B15
:1005E80040F8043B51F8043B40F8043B51F8043B05
:1005F80040F8043B403ABDD2303211D351F8043BA5
:1006080040F8043B51F8043B40F8043B51F8043BE4
:1006180040F8043B51F8043B40F8043B103AEDD253
:100628000C3205D351F8043B40F8043B043AF9D2A4
:10063800043208D0D2071CBF11F8013B00F8013B77
:1006480001D30B8803806046704700BF082A13D384
:100658008B078DD010F003038AD0C3F10403D21A9C
:10066800DB071CBF11F8013B00F8013B80D331F8D0
:10067800023B20F8023B7BE7043AD9D3013A11F850
:10068800013B00F8013BF9D20B7803704B784370BB
:100698008B788370604670472DE9F0418AB000245A
:1006A8000594069407940894099401942E4B1A6BA8
:1006B80042F004021A631A6B02F004020192019AD2
:1006C80002941A6B42F080021A631A6B02F08002DD
:1006D8000292029A03941A6B42F001021A631A6B8F
:1006E80002F001020392039A04941A6B42F0020288
:1006F8001A631B6B03F002030493049BDFF86C80FE
:10070800224642F22F01404600F0D0FD184F224603
:10071800C021384600F0CAFD164E22464AF2C001F2
:10072800304600F0C3FD42F22F03059301250695DC
:100738000794089405A9404600F02CFCC0230593B3
:1007480006950794089405A9384600F023FC4AF258
:10075800C003059306950794089405A9304600F050
:1007680019FC0AB0BDE8F0810038024000080240D8
:10077800000002400004024072B6FEE708B50A48CD
:100788000A4B03604FF4E133436000238360C36086
:1007980003610C2242618361C36101F043FA00B92D
:1007A80008BDFFF7E9FF00BFD40900200010014091
:1007B80008B50B484FF0A0430360042343600222AE
:1007C800C2600023036182610122C2610362436245
:1007D800C362036300F070FD00B908BDFFF7CCFFEA
:1007E800C804002000B595B03022002108A831F0D7
:1007F80055FA0023039304930593069307930193F3
:10080800214A116C41F080511164126C02F080523F
:100818000192019A02931D4B1A6842F480421A60B1
:100828001B6803F480430293029B012308934FF44F
:100838008033099302230E934FF480020F9208220B
:1008480010924FF4A872119212930723139308A8D9
:1008580000F0E0FD98B90F230393022304930023CB
:1008680005934FF4A05306934FF480530793052143
:1008780003A801F035F820B915B05DF804FBFFF7BF
:100888007BFFFFF779FF00BF00380240007000408F
:1008980010B584B000F0DAFAFFF7A4FFFFF7FCFE0A
:1008A800FFF76CFFFFF784FF00224FF40051234845
:1008B80000F0FCFC224C00224021204600F0F6FC0F
:1008C80000228021204600F0F1FC1E4800F08BFD3C
:1008D8001BF0B6FD64230A221B491C4801F0D1F91C
:1008E80001F074FDAC214FF4A07009F011FA09F081
:1008F800DDF809F0C4F900228DF8062038238DF8B8
:10090800053088238DF80430019BADF80C301B0CA2
:100918008DF80E30039BADF808301B0C8DF80A30AB
:10092800029907F03AFD01F077FC1FF0D5FA64232D
:1009380009220749054801F0A4F9F6E70008024032
:1009480000000240C80400206C1E0308D4090020DF
:10095800781E030882B0002100910B4B5A6C42F4B8
:1009680080425A645A6C02F480420092009A0191C3
:100978001A6C42F080521A641B6C03F08053019386
:10098800019B02B0704700BF0038024000B589B033
:10099800002303930493059306930793026803F1D6
:1009A800804303F588339A4202D009B05DF804FB0E
:1009B8000021019103F594335A6C42F010025A64F5
:1009C8005A6C02F010020192019A02911A6B42F0DD
:1009D80001021A631B6B03F001030293029B4FF49D
:1009E800C063039302230493032306930723079307
:1009F80003A9024800F0CEFAD7E700BF0000024082
:100A080030B589B0002303930493059306930793A5
:100A18000368B3F1A04F01D009B030BD002501959E
:100A2800124C236B43F001032363236B03F0010390
:100A38000193019B4FF4C8530393022304930323A8
:100A480006930A23079303A9094800F0A3FA636BE6
:100A580043F0800363630295636C43F480436364EB
:100A6800636C03F480430293029BD5E7003802408D
:100A78000000024008B50368B3F1A04F00D008BDDC
:100A8800054A536B23F0800353634FF4C85103485E
:100A980000F072FBF3E700BF00380240000002409C
:100AA800FEE7FEE7FEE7FEE7FEE7704770477047A0
:100AB80008B500F06AFA012023F058FF00F0E0F9C9
:100AC80008BD7047DFF834D00D480E490E4A0023A0
:100AD80002E0D458C4500433C4188C42F9D30B4AEA
:100AE8000B4C002301E013600432A242FBD3FFF752
:100AF800E8FF31F0AFF8FFF7CBFE704700000220A7
:100B080000000020AC0400200C6C0308AC0400209A
:100B1800488F0120FEE72DE9F84381460F46154628
:100B28009846BDF82060013B013A9BB292B200F0B2
:100B380069F808E0304600F047F80134A4B2AC4246
:100B4800F8D30137BFB2474501D24C46F7E7BDE8B5
:100B5800F883000038B5044600220221164800F048
:100B6800A5FB00250FE000224FF40041134800F0D8
:100B78009DFB01224FF40051104800F097FB6400E0
:100B8800E4B20135EDB2072D0FD800224FF4005121
:100B98000A4800F08BFB14F0800FE4D001224FF4D8
:100BA8000041064800F082FBE3E7012202210248E7
:100BB80000F07CFB38BD00BF000802400004024082
:100BC80008B5FFF7C7FF08BD10B50446000AFFF7D0
:100BD800C1FFE0B2FFF7BEFF10BD000038B5044604
:100BE800074D00222021284600F060FB2046FFF731
:100BF800B1FF01222021284600F058FB38BD00BF74
:100C080000080240F8B507460D4616461C462A203D
:100C1800FFF7E4FF3846FFF7D7FF3046FFF7D4FF6A
:100C28002B20FFF7DBFF05F1220080B2FFF7CCFF96
:100C380004F1220080B2FFF7C7FF2C20FFF7CEFF98
:100C4800F8BD000010B56D4C00220421204600F0CC
:100C58002DFB1E2000F026F901220421204600F079
:100C680025FB642000F01EF901220821204600F02F
:100C78001DFB642000F016F91120FFF7AFFF3620A6
:100C8800FFF7ACFF7020FFF79BFF3A20FFF7A6FFA6
:100C98000520FFF795FFB220FFF7A0FF0C20FFF714
:100CA8008FFF0C20FFF78CFF0020FFF789FF332010
:100CB800FFF786FF3320FFF783FFB720FFF78EFF8C
:100CC8003520FFF77DFFBB20FFF788FF3520FFF7B2
:100CD80077FFC020FFF782FF2C20FFF771FFC220AB
:100CE800FFF77CFF0120FFF76BFFC320FFF776FFBC
:100CF8001320FFF765FFC420FFF770FF2020FFF7E0
:100D08005FFFC620FFF76AFF0F20FFF759FFD020CB
:100D1800FFF764FFA420FFF753FFA120FFF750FF60
:100D2800D620FFF75BFFA120FFF74AFFE020FFF77F
:100D380055FFF020FFF744FF0020FFF741FF042094
:100D4800FFF73EFF0420FFF73BFF0420FFF738FFC3
:100D58000520FFF735FF2920FFF732FF3320FFF783
:100D68002FFF3E20FFF72CFF3820FFF729FF122026
:100D7800FFF726FF1220FFF723FF2820FFF720FFA9
:100D88003020FFF71DFFE120FFF728FFF020FFF7D5
:100D980017FF0720FFF714FF0A20FFF711FF0D20A8
:100DA800FFF70EFF0B20FFF70BFF0720FFF708FFE9
:100DB8002820FFF705FF3320FFF702FF3E20FFF74B
:100DC800FFFE3620FFF7FCFE1420FFF7F9FE142083
:100DD800FFF7F6FE2920FFF7F3FE3220FFF7F0FEBB
:100DE8002120FFF7FBFE1120FFF7F8FE782000F026
:100DF80059F82920FFF7F2FE10BD00BF0008024095
:100E080010B504460E4B18784FF47A73B3FBF0F321
:100E18000C4A1068B0FBF3F000F0A2F868B90F2C88
:100E280001D901200AE0002221464FF0FF3000F0EE
:100E38005FF8054B1C60002000E0012010BD00BFDA
:100E480004000020000000200800002008B50B4B1B
:100E58001A6842F400721A601A6842F480621A60D2
:100E68001A6842F480721A60032000F02FF80F20ED
:100E7800FFF7C6FFFFF76EFD002008BD003C0240EB
:100E8800034A1168034B1B780B441360704700BF7B
:100E9800180A002004000020014B1868704700BFA2
:100EA800180A002038B50446FFF7F6FF0546B4F1E6
:100EB800FF3F02D0044B1B781C44FFF7EDFF401B9B
:100EC800A042FAD338BD00BF04000020074AD36807
:100ED80023F4E0631B041B0C000200F4E0600343EE
:100EE80043F0BF6343F40033D360704700ED00E084
:100EF80000B5194BDB68C3F30223C3F1070CBCF13F
:100F0800040F28BF4FF0040C03F1040EBEF1060FC6
:100F180018D9033B4FF0FF3E0EFA0CFC21EA0C01F6
:100F280099400EFA03F322EA0303194300280BDB66
:100F38000901C9B200F1604000F5614080F8001372
:100F48005DF804FB0023E5E700F00F000901C9B2D2
:100F5800024B1954F4E700BF00ED00E014ED00E087
:100F68000138B0F1807F0BD24FF0E0235861054A79
:100F7800F02182F823100020986107221A61704737
:100F88000120704700ED00E0704708B5FFF7FCFF4F
:100F980008BD000000230F2B00F2E48070B582B07A
:100FA80060E085685E000324B44025EA0405CC6847
:100FB800B4402C438460456825EA02054C68C4F3B4
:100FC80000129A402A4342605AE0DC08083450F87C
:100FD800246003F0070295000F22AA4026EA020EB9
:100FE8000A69AA4042EA0E0240F824205CE007227F
:100FF80000E0002202FA0EF22A4302345A4D45F864
:1010080024205A4A94686FEA0C0224EA0C054E68B8
:1010180016F4801F01D04CEA0405544CA560E4681E
:1010280002EA04054E6816F4001F01D04CEA0405D4
:101038004E4CE560646802EA04054E6816F4003F09
:1010480001D04CEA0405494C6560246822404D688B
:1010580015F4803F01D04CEA0402444C226001336D
:101068000F2B7DD801229A400C6804EA020C32EA60
:101078000404F4D14C6804F00304013C012C90D919
:101088004A6802F00302032A09D0C4685D000322FB
:10109800AA4024EA02048A68AA402243C2604A6835
:1010A80002F00302022A90D004684FEA430E03229A
:1010B80002FA0EF224EA02044A6802F0030202FA73
:1010C8000EF2224302604A6812F4403FC7D0002261
:1010D8000192274A546C44F480445464526C02F4DC
:1010E80080420192019A9C08A51C1F4A52F825507B
:1010F80003F003024FEA820E0F2202FA0EF225EAEB
:1011080002051C4A90423FF474AF02F58062904297
:101118001AD002F58062904218D002F5806290429F
:1011280016D002F58062904214D002F58062904297
:1011380012D002F58062904210D002F5806290428F
:101148003FF455AF082255E7012253E7022251E741
:1011580003224FE704224DE705224BE7062249E721
:1011680002B070BD704700BF00380140003C01402C
:10117800003802400000024000230F2B00F28F804D
:10118800F0B52DE0072500E0002505FA0CFCA44584
:1011980069D004685D004FF0030C0CFA05FC24EAE2
:1011A8000C0404604FEAD30E0EF1080E50F82E40DE
:1011B80003F00705AE000F25B54024EA050440F802
:1011C8002E40C46824EA0C04C460446824EA02027D
:1011D8004260826822EA0C02826001330F2B5DD8DC
:1011E80001229A4002EA010632EA0104F5D14FEAE7
:1011F800930E0EF102052A4C54F8254003F0030C17
:101208004FEA8C0C0F2505FA0CF73C40254DA842F7
:10121800BAD005F58065A84219D005F58065A842C1
:1012280017D005F58065A84215D005F58065A84258
:1012380013D005F58065A84211D005F58065A84250
:101248000FD005F58065A8429CD008259DE70125AB
:101258009BE7022599E7032597E7042595E70525E8
:1012680093E7062591E7104C256825EA06052560D1
:10127800656825EA06056560E56825EA0605E5600E
:10128800A56825EA0606A660054E0EF1020456F882
:10129800245025EA070546F824507AE7F0BD704740
:1012A8000038014000000240003C01400AB1816161
:1012B800704709048161704770B58AB0002800F052
:1012C80090800546046890F8BD343BB3032385F845
:1012D800BD34E36B13F4807F01D100232B612868B0
:1012E80000F0A9FD2C4654F8106BEC460FCCACE886
:1012F8000F000FCCACE80F0094E803008CE8030063
:101308002B1D0ECB304600F051FD044658B1022388
:1013180085F8BD34012420460AB070BD80F8BC347D
:10132800FFF76EFBD2E70021286800F0DBFE2346BA
:1013380016E003EBC30205EB8202012182F83D109F
:1013480082F83C30A2F84430002182F840109164C1
:10135800D16403EBC30205EB820251650133DBB2B2
:1013680069688B42E5D316E004EBC40305EB8303FD
:10137800002283F87D2283F87C4283F88022C3F818
:101388008822C3F88C2204EBC40305EB8303C3F85B
:1013980094220134E4B2A142E6D82C4654F8106BEA
:1013A800EC460FCCACE80F000FCCACE80F0094E88B
:1013B80003008CE803002B1D0ECB304600F098FD8F
:1013C800044620B1022385F8BD340124A3E7002395
:1013D80085F83830012385F8BD34286800F070FEA0
:1013E80099E7012497E738B590B10446032380F8BC
:1013F800BD34006800F044FE054610B101252846BA
:1014080038BD2046FFF736FB002384F8BD34F6E7E5
:101418000125F4E7002800F0E08170B582B00446A9
:10142800036813F0010F3BD09F4B9B6803F00C033C
:10143800042B2CD09C4B9B6803F00C03082B21D069
:101448006368B3F5803F4FD0B3F5A02F52D0964BC9
:101458001A6822F480321A601A6822F480221A600C
:101468006368002B50D0FFF717FD05468E4B1B68AD
:1014780013F4003F14D1FFF70FFD401B6428F5D982
:101488000320B1E1884B5B6813F4800FD8D0864BFA
:101498001B6813F4003F03D06368002B00F09F81A2
:1014A800236813F0020F54D07F4B9B6813F00C0F86
:1014B8003ED07D4B9B6803F00C03082B33D0E368C8
:1014C800002B68D0794B01221A60FFF7E5FC05462E
:1014D800754B1B6813F0020F54D1FFF7DDFC401B5E
:1014E8000228F5D903207FE16F4A136843F480335B
:1014F8001360B5E76C4B1A6842F480221A601A68C8
:1015080042F480321A60ABE7FFF7C6FC0546664B2B
:101518001B6813F4003FC3D0FFF7BEFC401B6428D0
:10152800F5D9032060E1604B5B6813F4800FC6D1E6
:101538005D4B1B6813F0020F03D0E368012B40F0EA
:101548005081594A136823F0F803216943EAC1031B
:101558001360236813F0080F42D063696BB3534BD1
:101568000122C3F8802EFFF797FC05464E4B5B6FB0
:1015780013F0020F34D1FFF78FFC401B0228F5D976
:10158800032031E1484A136823F0F803216943EA4C
:10159800C1031360DDE7454B00221A60FFF77CFCAE
:1015A8000546414B1B6813F0020FD2D0FFF774FCBD
:1015B800401B0228F5D9032016E13C4B0022C3F852
:1015C800802EFFF769FC0546374B5B6F13F0020F5F
:1015D80006D0FFF761FC401B0228F5D9032003E180
:1015E800236813F0040F77D02F4B1B6C13F0805F28
:1015F80033D1002301932C4B1A6C42F080521A64A9
:101608001B6C03F080530193019B0125284B1B6839
:1016180013F4807F23D0A368012B34D0052B38D056
:10162800214B1A6F22F001021A671A6F22F0040286
:101638001A67A368002B3DD0FFF72EFC06461A4B0D
:101648001B6F13F0020F46D1FFF726FC801B41F2F7
:1016580088339842F3D90320C6E00025D6E7144A18
:10166800136843F480731360FFF716FC0646104BAB
:101678001B6813F4807FCED1FFF70EFC801B022875
:10168800F5D90320B0E0084A136F43F0010313674C
:10169800CFE7054B1A6F42F004021A671A6F42F03F
:1016A80001021A67C5E700BF003802400000474240
:1016B80000700040FFF7F0FB0646524B1B6F13F01B
:1016C800020F08D0FFF7E8FB801B41F288339842ED
:1016D800F3D9032088E0EDB9A369002B00F08380DB
:1016E800484A926802F00C02082A51D0022B17D0FF
:1016F800454B00221A66FFF7CFFB0446414B1B6897
:1017080013F0007F42D0FFF7C7FB001B0228F5D972
:10171800032069E03B4A136C23F080531364DBE732
:10172800394B00221A66FFF7B7FB0546354B1B6895
:1017380013F0007F06D0FFF7AFFB401B0228F5D956
:10174800032051E0E369226A1343626A43EA821381
:10175800A26A5208013A43EA0243E26A43EA026390
:10176800284A5360284B01221A66FFF795FB044666
:10177800244B1B6813F0007F06D1FFF78DFB001B7D
:101788000228F5D903202FE000202DE000202BE0CF
:10179800012B2BD01B4B5B6803F48001E26991425B
:1017A80026D103F03F02216A8A4223D1616A47F6B3
:1017B800C0721A40B2EB811F1ED103F44031A26AF5
:1017C8005208013AB1EB024F18D103F07063E26A94
:1017D800B3EB026F14D1002006E00120704701200E
:1017E80002E0012000E0002002B070BD0120FBE70C
:1017F8000120F9E70120F7E70120F5E70120F3E7E9
:101808000120F1E7003802400000474208B5314B9B
:101818009B6803F00C03042B57D0082B57D12D4B92
:101828005A6802F03F025B6813F4800F2AD0294BF4
:101838005968C1F3881C4FEA4C11B1EB0C006EEBF0
:101848000E0E4FEA8E1343EA90638101091A63EB87
:101858000E03DB0043EA5173C90011EB0C0C43F192
:101868000003590200234FEA4C2041EADC51FEF7FD
:10187800F7FC184B5B68C3F3014301335B00B0FB13
:10188800F3F025E0134B5968C1F3881C4FEA4C115B
:10189800B1EB0C006EEB0E0E4FEA8E1343EA906329
:1018A8008101091A63EB0E03DB0043EA5173C90097
:1018B80011EB0C0C43F10003990200234FEA8C2032
:1018C80041EA9C51FEF7CCFCD3E7034800E003480B
:1018D80008BD00BF0038024000127A000024F4005E
:1018E800002800F09B8070B50D4604464F4B1B68DE
:1018F80003F007038B4208D2CBB24C4A137013682B
:1019080003F007038B4240F08B80236813F0020F2B
:1019180017D013F0040F04D0454A936843F4E053FA
:101928009360236813F0080F04D0414A936843F486
:10193800604393603E4A936823F0F003A1680B4329
:101948009360236813F0010F32D06368012B21D014
:101958009A1E012A25D9364A126812F0020F61D060
:1019680033498A6822F0030213438B60FFF794FA25
:1019780006462F4B9B6803F00C036268B3EB820F9B
:1019880016D0FFF789FA801B41F288339842F0D9C4
:10199800032042E0264A126812F4003FE0D10120F9
:1019A8003BE0234A126812F0007FD9D1012034E0CD
:1019B8001E4B1B6803F00703AB4207D9EAB21B4B67
:1019C8001A701B6803F00703AB422DD1236813F08C
:1019D800040F06D0164A936823F4E053E1680B43DA
:1019E8009360236813F0080F07D0114A936823F413
:1019F8006043216943EAC1039360FFF707FF0C4B7B
:101A08009B68C3F303130B4AD35CD8400A4B186096
:101A18000A4B1868FFF7F4F9002070BD01207047E1
:101A28000120FAE70120F8E70120F6E7003C024030
:101A380000380240841E030800000020080000202F
:101A4800014B1868704700BF0000002008B5FFF779
:101A5800F7FF044B9B68C3F38223034AD35CD84047
:101A680008BD00BF00380240941E030808B5FFF700
:101A7800E7FF044B9B68C3F34233034AD35CD84067
:101A880008BD00BF00380240941E030838B504465C
:101A98000268136923F44053C1680B4313618368D8
:101AA8000269134342691343C2691A430168CB6848
:101AB80023F4164323F00C031343CB6002685369E5
:101AC80023F4407381690B4353610368314A93429D
:101AD80006D002F58062934202D0FFF7B7FF01E01B
:101AE800FFF7C4FFE369B3F5004F29D000210318BD
:101AF80049411B1841F10001C90041EA5371DB005B
:101B0800181863684FEA83024FEA937341F10001A2
:101B1800FEF7A6FB204DA5FB00325109642303FB09
:101B280011031B013233A5FB03235B0903F0F00209
:101B380002EB011203F00F03216813448B6038BDD8
:101B48000023021843EB0301121841F10001C900F8
:101B580041EA5271D200101841F1000162689218EE
:101B68005B41FEF77DFB0C4DA5FB00325109642358
:101B780003FB1103DB003233A5FB03235B095A0087
:101B880002F4F87202EB011203F007032168134410
:101B98008B60D4E7001001401F85EB512DE9F84315
:101BA80005460F4616469946DDF820802C682468BD
:101BB80037EA04030CBF4FF0010C4FF0000CB4459A
:101BC8002DD1B8F1FF3FF1D0B8F1000F05D0FFF7E4
:101BD80063F9A0EB09004045E8D92A6802F10C0333
:101BE80053E8003F23F4D0730C3242E80031002957
:101BF800F3D12A6802F1140353E8003F23F00103EC
:101C0800143242E800310029F3D1202385F83D3011
:101C180085F83E30002385F83C30032000E00020A2
:101C2800BDE8F88358B310B5044690F83D300BB3BF
:101C3800242384F83D302268D36823F40053D3600A
:101C48002046FFF723FF2268136923F490431361AA
:101C58002268536923F02A0353612268D36843F446
:101C68000053D36000202064202384F83D3084F89A
:101C78003E3010BD80F83C30FEF788FED8E70120E2
:101C880070472DE9F04182B01E4690F83D30DBB236
:101C9800202B54D104460D469046002953D0002AE3
:101CA80053D090F83C30012B51D0012380F83C30C0
:101CB80000230364212380F83D30FFF7EDF8074641
:101CC800A4F82480A4F82680A368B3F5805F05D023
:101CD8004FF00008002384F83C3012E0236913B168
:101CE8004FF00008F6E7A8460025F3E738F8023B6E
:101CF8002268C3F308035360E28C92B2013A92B2AD
:101D0800E284E38C9BB273B100963B4600228021AB
:101D18002046FFF743FFE0B9002DE7D015F8012B67
:101D280023685A60E8E700963B4600224021204697
:101D3800FFF734FF78B9202384F83D3000E0022013
:101D480002B0BDE8F0810120FAE70120F8E702209F
:101D5800F6E70320F4E70320F2E7000082B000234F
:101D68000193019B01330193019A0F4B9A4215D8B5
:101D78000369002BF5DA00230193036943F001039B
:101D88000361019B01330193019A074B9A4208D8DA
:101D9800036913F0010FF4D1002000E0032002B022
:101DA80070470320FBE700BF400D030084B010B567
:101DB800044603A880E80E00089B012B1FD1A36BE3
:101DC80023F48033A363E36823F4840323F04003FC
:101DD800E360E36823F44013E3600F9B012B09D011
:101DE8002046FFF7BBFF069B012B1BD0BDE8104028
:101DF80004B07047E36843F48013E360F0E7E368F6
:101E080043F04003E3602046FFF7A8FF0C9B23B98B
:101E1800A36B43F48033A363E5E7A36B23F4803318
:101E2800A363E0E7A36843F00603A360A36843F055
:101E38002003A360DAE7836823F0010383600020AE
:101E48007047000082B000230193019B0133019386
:101E5800019A0F4B9A4215D80369002BF5DA002333
:101E68000193890141F020010161019B0133019334
:101E7800019A074B9A4208D8036913F0200FF4D14E
:101E8800002000E0032002B070470320FBE700BFFA
:101E9800400D030082B000230193019B013301939D
:101EA800019A0E4B9A4213D80369002BF5DA0023E6
:101EB800019310230361019B01330193019A074B9E
:101EC8009A4208D8036913F0100FF4D1002000E0FB
:101ED800032002B070470320FBE700BF400D03005A
:101EE800D0F800381943C0F80018002070470000E7
:101EF80084B02DE9F041044607A880E80E000023CD
:101F080006E003F1400204EB820200215160013334
:101F18000E2BF6D9119F27BBD4F8043843F00203DF
:101F2800C4F80438A36B43F40013A363A36B23F42E
:101F38000023A363A36B23F48023A3630023C4F8C3
:101F4800003E04F50065D4F80038C4F800380C9B4E
:101F5800012B14D1099B6BB900212046FFF7C0FF64
:101F680011E0A36B23F40013A363A36B43F40023D2
:101F7800A363E3E701212046FFF7B2FF03E0032153
:101F88002046FFF7ADFF10212046FFF75BFF804694
:101F980008B14FF001082046FFF77CFF08B14FF069
:101FA800010800232B616B61EB610AE0C3B94FF0B4
:101FB8000060C2F8000900220A614FF67F328A6089
:101FC80001330799994210D904EB431202F51061C5
:101FD800D2F800090028E9DB0020C2F80009EAE786
:101FE8004FF09040C2F80009E5E700230AE0C3B1CA
:101FF8004FF0904CC2F800CB002202614FF67F32BE
:1020080082600133994211D904EB431202F5306022
:10201800D2F8006B002EEADB4FF0000CC2F800CBC0
:10202800EAE74FF0006CC2F800CBE5E72B6923F430
:1020380080732B610023A3616FF0804363610A9B67
:102048001BB9A36943F01003A361A2690B4B1343A7
:10205800A3610D9B1BB1A36943F00803A361012F82
:1020680004D04046BDE8F04104B07047A36943F08E
:10207800804343F00403A361F3E700BF00383C80CA
:1020880010B50446002208E004EB42134FF67F31F6
:10209800C3F80819C3F8081B01320E2AF4D9002224
:1020A800C4F81028C4F81428C4F81C282046FFF7E0
:1020B800F1FE00B110BD10212046FFF7C3FEF9E77D
:1020C800D0F8003E23F00303C0F8003ED0F80438EF
:1020D80043F00203C0F8043800207047406900F05C
:1020E8000100704738B50546C36823F0C043C36094
:1020F800012913D019BBC36843F08043C36000248F
:102108000120FEF7CFFE01342846FFF7E7FF08B1AC
:10211800312CF5D9322C14D0002038BDC36843F0D7
:102128000053C36000240120FEF7BCFE013428469A
:10213800FFF7D4FF0128EDD0312CF4D9EAE70120CC
:10214800EBE70120E9E700002DE9F0418846164653
:102158001F4600F02DFE044605F044FD6FF0404296
:102168001C49204602F02CF90021204618F002FFF5
:10217800002302221946204618F007FF204628F0BF
:102188007FFC0546414629F03FF80121284618F012
:1021980013FF20462DF030FD0546334620220E4918
:1021A80001F09DFF5FB10121284600F04EFE314647
:1021B8000A4B186801F0B6F82046BDE8F081012105
:1021C800284600F057FE3146044B186800F0FEFD23
:1021D800F2E700BF64000020E92100081C0A002083
:1021E80038B504461BF0DDFE054620461BF0E1FE2F
:1021F80004460121284600F061FE28B12146054B1E
:10220800186801F08FF838BD2146024B186800F0B5
:10221800DDFDF8E71C0A002070B507F047FC07F061
:102228002EFD00F0C5FD04460022102106F0D2F86C
:1022380000220821204606F0E3F800220421204667
:1022480006F0D3F800226621204606F0E4F8384A62
:102258003849204602F0B4F800231A4609212046DE
:1022680002F0F6F80121204618F084FE02231A46EF
:102278000021204618F089FE20462AF071FA2E4DDA
:1022880028602E4E2E4A31462AF07AFA2D4A3146D7
:1022980028682AF075FA2C4A314628682AF070FA1C
:1022A8002A4A314628682AF06BFA294A31462868B2
:1022B8002AF066FA274A314628682AF061FA264A3F
:1022C800314628682AF05CFA244A314628682AF000
:1022D80057FA234A314628682AF052FA214A3146E9
:1022E80028682AF04DFA012310221F492046FFF7DB
:1022F8002BFF01234FF440721C492046FFF724FFAF
:10230800012320221A492046FFF71EFF01234022FD
:1023180018492046FFF718FF2C68204606F0EDF80C
:1023280028B106F05AF9411E204606F0F2FA70BDAF
:102338005A000020460000201C0A0020A81E03089E
:102348009C1E0308AC1E0308B81E0308C41E03081D
:10235800D01E0308DC1E0308E81E0308F41E030849
:10236800001F03080C1F0308181F0308241F030875
:10237800341F0308441F03082DE9F04182B080464A
:102388000F4B1B78B3B10C4616464F680DE0B3B23D
:102398000093A38992B2A1882088FEF7BCFB01367E
:1023A8000135A268AA42F2DA0137E368BB4201DBD1
:1023B8002568F6E7404607F05AFC02B0BDE8F08110
:1023C8000C00002008B5FEF73DFC08BD10B582B032
:1023D800FFF7F8FFAC214FF4A07007F099FC044612
:1023E800064907F0C9FB0022009248F2403304492D
:1023F800204607F0D9FB02B010BD00BF81230008BA
:10240800200A002070B50546002017F09DFE0446FE
:10241800002603E0204617F097FE044664B12046E4
:1024280017F0A6FE012806D0204617F0ABFE85421D
:10243800F0D12646EEE72646304670BD2DE9F04736
:10244800037F13F0010F6FD106468A469146C5688F
:102458004FF001080027E5B1012357B32BB12946F6
:102468003046C8470546874269D0002DF3D0286812
:1024780000F022FD10F0800FEDD12C68ECB10121A5
:10248800204600F00CFDC0B9204606F036F8044698
:10249800F4E7337F13F0080F01D1002F49D1B8F1C9
:1024A800000F43D03046D04705464FF0000843465A
:1024B800D3E7002D40D02F46D0E72CB1012120468C
:1024C80000F0EDFC0028C6D1F368AB423AD08BB1DE
:1024D8001C683046FFF796FF02461121204601F09E
:1024E800D5FD012802D04FF000081FE0F3681868F6
:1024F80002F0C8FCF5602C683046FFF783FF0246FF
:102508001021204601F0C2FD012802D04FF000083A
:102518000CE0F368186802F0B5FC3369ABB13046DB
:1025280098474FF0010801E04FF000084046BDE829
:10253800F0874FF00008F9E74FF00008F6E74FF092
:102548000008F3E74FF00008F0E74FF00108EDE767
:1025580008B5202101481BF03BFF08BD948D0020E1
:10256800014B186C704700BF608D002060B110B53A
:102578000446064A0649FFF761FF63691BB110B9B3
:1025880001212046984710BDFEE700BF75E4010809
:1025980065E4010860B110B50446064A0649FFF72C
:1025A8004DFF63691BB110B900212046984710BD43
:1025B800FEE700BF7DE401086DE4010838B5044674
:1025C800037FC3F3C00543F008030377DBB213F0BE
:1025D800040F06D1FFF7CAFF237F65F3C3032377F0
:1025E80038BDFFF7D7FFF7E770B5064600F06CFC7B
:1025F800002849D00546C36813B11B68B34213D0FD
:10260800EB6813B11B68B34230D028461BF026FF95
:102618000446002C38D02368B3422AD021462846E5
:102628001BF024FF0446F4E7037F13F0010F03D0E7
:10263800037F6FF30003037728461BF00FFFEB6857
:10264800834203D02846FFF7B9FFD9E728461BF095
:1026580009FFEB688342F5D11C682846FFF7D2FED4
:1026680002461121204601F011FDC9E70023EB6065
:10267800CBE7214628461BF033FF20461EF030FFEB
:10268800B3680BB100225A6070BDF0B170B50C464A
:1026980005460846FFF7A8FFA3686BB1A3685D600D
:1026A80028461BF0BCFE064650B1046028461BF0C5
:1026B800D5FE864205D070BD204600F07AFEEDE7D3
:1026C800FEE72846FFF77AFFF5E7704718B1C068BC
:1026D80008B1006870477047D8B170B50446037FE9
:1026E800C3F340038B4213D0037F61F341030377A5
:1026F800FFF7ECFF054658B1E3681E682046FFF770
:1027080081FE02461021304601F0C0FC012801D0AC
:1027180070BDFEE7284602F0B5FBF9E718B1007F67
:10272800C0F3400070470020704730B589B00546B7
:102738000C46084609F0B2FB1D224FF480312846AA
:1027480004F0F0FE0190C0B284F8200002283ED8C0
:1027580032224FF48031284604F0E4FE0190C0B2E2
:1027680084F8480002284CD83E224FF4803128468D
:1027780004F0D8FE0190C0B284F86C00022867D833
:102788004FF48031284605F0C2F8FC280BD894F89D
:10279800203003FB00F0C0F3072084F8200084F801
:1027A800480084F86C0094F820302BB994F848302D
:1027B80013B994F86C0040B10C224FF480312846CC
:1027C80004F0B0FE0190E061012009B030BD1C2288
:1027D8004FF48031284604F0A5FE0190ADF80C00B6
:1027E800030C8DF80E30039BADF808301B0C8DF8E8
:1027F8000A30BDF80820DBB2A4F8212084F8233081
:10280800A6E730224FF48031284604F08BFE019071
:102818006064002803DC002384F84830A4E73122F0
:102828004FF48031284604F07DFE0190ADF8140085
:10283800030C8DF81630059BADF810301B0C8DF885
:102848001230BDF81020DBB2E28784F840308BE705
:102858003C224FF48031284604F064FE0190E06584
:10286800002803DC002384F86C3089E742224FF407
:102878008031284604F056FE0190A0663D224FF4B0
:102888008031284604F04EFE0190ADF81C00030C80
:102898008DF81E30079BADF818301B0C8DF81A30D8
:1028A800BDF81820DBB2A4F8592084F85B3067E73C
:1028B80030B5A5B004460D461CAA20A903F0B6FF02
:1028C80020A81AF096FC18B91CA81AF092FC28B196
:1028D80069462046FFF729FF012801D025B030BD01
:1028E80020A81AF086FC60B91CA81AF082FC0028FF
:1028F800F4D0012302931CAA6946284609F0A0FBDC
:10290800ECE70023029320AA6946284609F098FBC1
:10291800EAE7F0B5A1B006461BF045FB0546304690
:102928001BF03DFB0446172D07D01A2D00F08680BA
:102938001D2D00F0BC8021B0F0BD30461BF037FBE8
:1029480005460378022BF6D02D220021204604F0FC
:10295800E9FD049010B102232B70ECE70C22002152
:10296800204604F0DFFD0646049068220021204638
:1029780004F0D8FD0746049069220021204604F09F
:10298800D1FD0246049063690493A3690593E36942
:102998000693236A0793394604A81AF034FC324692
:1029A80004A968681AF02CFD10B901232B70C2E73E
:1029B8001D220021204604F0B5FD0090C0B2FC287D
:1029C80002D801232B70B6E75F220021204604F0CD
:1029D800A9FD0090C0B2FC2802D801232B70AAE7F9
:1029E80020220021204604F09DFD009010F0FF0FEA
:1029F80008D025220021204604F094FD0090C0B2A2
:102A0800FC2812D926220021204604F08BFD0090D4
:102A180088B10023827A9A420DD903EB83020244DB
:102A2800D278FC2A04D90133F4E701232B7082E71A
:102A380001232B707FE700232B707CE7304601F0E1
:102A48007AFB064604A809F029FA04AA00212046C0
:102A580000F0BBFD35220021204604F063FD009004
:102A680028B19DF8593043F020038DF85930682279
:102A78000021204604F056FD0546009069220021F9
:102A8800204604F04FFD0246009063690093A36955
:102A98000193E3690293236A0393294668461AF06F
:102AA800B2FB6A4604A9304609F0CAFA43E7304641
:102AB80001F041FB054601462046FFF7F9FE3522A5
:102AC8000021204604F02EFD049000283FF433AF87
:102AD80004A809F0E3F900268DF830608DF84B6002
:102AE8008DF868608DF87C6004AA3146204600F0B5
:102AF8006CFD68223146204604F014FD074600901C
:102B080069223146204604F00DFD024600906369B3
:102B18000093A3690193E3690293236A03933946F7
:102B280068461AF070FB6A4604A9284609F088FA34
:102B380001E72DE9F04182B00C464D6805B32846FF
:102B480003F00AFA0746284603F086F98046AE697C
:102B580010220021284604F0E5FC01900644A6EB6B
:102B68000803A361013B23626E69122200212846F3
:102B780004F0D8FC01900644F01B60610138E06164
:102B88000223636241F20203636215B143F2020356
:102B980063621DB1636A43F440736362636A43F01E
:102BA8000402626243F01402626243F03402626219
:102BB80043F07403636243F40063636215B143F442
:102BC8000043636202B0BDE8F0812DE9F04F89B09F
:102BD8000C460391018D0591A14206D00646224676
:102BE80004F05BFD049018B9348509B0BDE8F08F96
:102BF800304602F047F9039B3385304604F0C5FEA2
:102C08004FF420701EF05AFC05464FF0000C644645
:102C18001CE0D3F800E000230EEBC3095EF8332074
:102C28007AB11278662A01D00133F5E7D9F8043071
:102C380007934FF0010804E059F8233007934FF049
:102C48000108B8F1010F2FD00CF1010C738DC3F3FB
:102C58000513634573D91F2C6BD8F3684FEACC0270
:102C680003EBCC07796888B201F47F01DDF80CE04A
:102C780030EA0E0EE8D197F8078018F00208E3D181
:102C88009B5893F808E0BEF1FF0FC2D0D3F800902C
:102C98004FEA8E0A00239E45D3D909EB0A02D25C7B
:102CA800662AC9D00133F6E7DDF81C804FF0000E24
:102CB80017E0013294420FD902EB820305EB83033C
:102CC80059681FFA81F901F47F011B7A5345F0D145
:102CD8005945EED18145ECD3594694420DD00EF1B9
:102CE800010ED8F8003013F80EA0BAF1000FABD0DF
:102CF8001F2CA9D800228B46DCE7D8F80C3004EB4F
:102D0800840905EB890225F82930D8F8103053805A
:102D1800D8F80830D360D8F8003013F80E301372A2
:102D2800D8F8043013617B68C3F317035360013488
:102D3800D5E70027DDF81480DDF80C9004E00027C3
:102D4800DDF81480DDF80C90BC420ED907EB870340
:102D580005EB8303596800934B46424601F47F0113
:102D6800304605F0AFF80137EEE728461EF0B8FB0D
:102D7800049B012B0DD0049B032B11D0049B022B29
:102D88007FF433AF304602F07DF8304601F08FF81B
:102D98002BE7FF224FF47021304604F011FE24E7A0
:102DA800FF224FF47021304604F00AFE1DE70000B0
:102DB80010B50146044800F03FFB20B1044600F07E
:102DC800CBFB204610BDFEE75C1F030870B588B03A
:102DD80004460D4601F0FEFA064615F0100F15D10F
:102DE800636A23EA0503636215F0010F1CD12046CC
:102DF80001F0F0FAB04202D115F0C07F04D02046AD
:102E080005F07BFB01F004FB08B070BD04AA69461D
:102E1800204603F00BFD6946204602F005F804A998
:102E2800204602F001F8DBE7204602F02BF82046A6
:102E380001F0D0FA0028DAD0204605F05EFB01F058
:102E4800E7FA204601F0E4FAD1E738B5038D43EA02
:102E5800010531EA030307D0044615F0800F04D1B9
:102E680029462046FFF7B1FE38BD0146002017F07D
:102E78004DFAF5E708B5028DB0F9283023EA0101CB
:102E880089B28A4200D108BDFFF79FFEFBE708B56B
:102E980012B1FFF7DAFF08BDFFF7ECFFFBE7436A63
:102EA80031EA03030CBF012000207047436A0B423C
:102EB80014BF012000207047008D7047038D0B421E
:102EC80014BF012000207047806800B14068704737
:102ED800F0B589B00E4608461BF065F80446304642
:102EE8001BF05DF80546012C34D0082C37D0032C94
:102EF8005AD02F2C5CD00E2C69D0102C00F02B81CE
:102F0800092C00F059810B2C00F05A81112C00F08B
:102F18006E812E2C00F06F81272C00F08E81292CD9
:102F280000F0B381182C00F0B9811A2C00F0BE8192
:102F38001D2C00F0BB81172C00F0B881142C00F078
:102F4800B981152C00F0BE81162C06D11021FFF78F
:102F580091FF02E02021FFF778FF09B0F0BD2021A2
:102F6800FFF788FF30461BF022F817F035F90028E4
:102F7800F3D108212846FFF792FF0028EDD0284614
:102F8800FFF79AFF10F0010F09D101212846FFF73A
:102F98005CFF00222021284601F078F8DDE70121B6
:102FA8002846FFF767FFF4E72021FFF763FFD4E720
:102FB80005F013FB0646002406E0AB681B6853F8CF
:102FC800240001F025FA0134B442F6D3C5E70821FC
:102FD800FFF765FFD8BB4FF401612846FFF75FFF95
:102FE8000028BAD0284600F08DFA0028B5D1284626
:102FF80002F0B2FF0746284603F03CF80446304684
:1030080001F0ABF8122840D0112850D0132860D016
:103018001428A2D1284602F0F7FE10F0030F00F0A2
:103028008680002F02DC002C40F38180284602F0C5
:1030380005FF0446284601F08BFA011EC0F289807C
:103048000022A4EBA101284603F0EEF985E73046FB
:1030580001F083F8044613280AD0112808D0142850
:1030680001D0122808D101212846FFF703FF03E009
:1030780001212846FFF7E9FE0A2C3FF46EAF002233
:103088002021284601F002F867E7284602F0DDFE15
:103098000446284601F061FA011E06DB002204EB13
:1030A800A101284603F0D4F957E70331F6E728468B
:1030B80002F0CBFE0446284601F04FFA011E06DB5B
:1030C8000022A4EBA101284603F0C2F945E7033129
:1030D800F6E7284602F098FE10F0030F13D0002FF1
:1030E80001DC002C0FDD284602F0A8FE0446284625
:1030F80001F02EFA011E18DB002204EBA10128467C
:1031080003F092F929E7284602F09FFE0446284674
:1031180001F023FA011E06DB002204EBA101284678
:1031280003F096F919E70331F6E70331E4E7284697
:1031380002F08BFE0446284601F00FFA011E06DB5A
:103148000022A4EBA101284603F082F905E7033128
:10315800F6E7033174E74FF48061FFF7A0FEB0B9DA
:103168002846FFF7B1FEFFF7D9FA044616F0FAFF32
:1031780090B116F0FDFF022812D0042812D00221C7
:1031880094B141F008012846FFF75FFEE5E601210A
:10319800284603F02DFBE3E7304600F0AFFFE8E7F1
:1031A8000621EDE70621EBE72846FFF74EFE08214A
:1031B8002846FFF75FFED0E64021FFF746FECCE643
:1031C8004021FFF757FE284602F015FE02287FF43B
:1031D800C4AE04AA6946284603F028FB6946284677
:1031E80001F022FE04A9284601F01EFEB5E60E21D4
:1031F800FFF740FEB1E60A22002104F093F904909B
:10320800C4B216220021284604F08CF9049080B23A
:1032180000B914B1284601F0FBF8284605F0DDF99D
:103228000646002406E0AB681B6853F8240001F04A
:10323800EFF80134B442F6D38FE60122002104F0FE
:1032480071F90446049002220021284604F06AF924
:10325800064604900A220021284604F063F90490E7
:10326800C7B216220021284604F05CF9049083B204
:103278003BB937B96FF040439C4202D09E427FF47D
:103288006CAE284601F0C4F867E690F82A3043F09F
:10329800020380F82A3001F0BBF85EE6002100F056
:1032A80090FD0146304600F072FF56E63046FFF7C3
:1032B80030FB52E62021FFF7DDFD40212846FFF7CD
:1032C800D9FD4AE61021FFF7C0FD46E610B50C46C9
:1032D80008461AF071FE002004F01EF9204604F09A
:1032E80081FC012004F018F90021204619F0B8FEED
:1032F8002046FFF7E9FD10B12046FFF775F9A368EE
:103308007BB1186820B11EF0EBF8A36800221A60A0
:10331800A06808301AF02DFEA0681EF0E1F800231E
:10332800A36010BDF0B589B004460D4601F052F80F
:10333800064615F001072AD1636A2B4363628FB1F1
:1033480002212046FFF7BAFD60B12046FFF7BCFD19
:10335800074638B1FFF70AF93846FFF7B7F908B159
:1033680001F090FD204601F035F8B04202D115F089
:10337800C07F07D0204605F0C0F801F049F8204684
:1033880001F046F815F0100F05D109B0F0BD204640
:1033980001F078FDD0E704AA6946204603F046FA12
:1033A8006946204601F040FD04A9204601F03CFD95
:1033B800EBE7836803B1704710B504462C201EF074
:1033C8007DF8A06058B1438D43F470734385A268BB
:1033D80092F82A3043F0030382F82A3010BDFEE742
:1033E80028B10068884214BF0020012070470020DF
:1033F800704770B505460C460E6833681BB10B6004
:10340800FFF7F7FF266023685B6813B1214628465B
:10341800984770BD00E0006820B1026A054B134070
:10342800002BF8D018B1006AC0F30F1070470020C5
:10343800704700BFF0FF0F0070B506460C46FFF757
:10344800E9FF1EF03BF80546C0B106604460BCB118
:10345800A368002B43D0A268138D01331385A66897
:10346800318D890030681EF045F83060A3681A680D
:103478001B8D03F18043013B42F82350284670BD61
:1034880006F014FB044600B3D0F8AC0210B3D4F82D
:10349800C812013189001EF02DF8F8B1D4F8C822FD
:1034A800511CC4F8C812C4F8AC0240F822500024D9
:1034B8006C61AC61204606F00DFB0138E8612046DE
:1034C80006F01EFB01382862D8E728461EF008F8E7
:1034D8002546D3E70023C4F8C832D8E7FEE72046DC
:1034E800FFF767FFB7E710B50446006883680BB1BC
:1034F8002146984723681B681BB123602046FFF7C5
:10350800F2FF10BD036800E01B6823B193F8202088
:1035180012F0030FF8D043B193F8200000F0030035
:10352800012814BF0020012070470020704703685D
:1035380000E01B6823B193F8202012F00C0FF8D09C
:1035480043B193F8200000F00C00042814BF0020B9
:10355800012070470020704738B5044600F058FF36
:10356800002003F0D9FF204621F0C8F92146206841
:10357800FFF73FFF012003F0CFFFFF224FF4702138
:10358800204604F01DFA204601F0EAFAFEF7E8FFAB
:1035980020B105462046FFF7CAFF88B9204604F047
:1035A800ACFF054658B12246272100F06FFD2246A0
:1035B8002821284600F06AFD204601F063FC38BD4A
:1035C80021462846FFF761F8E8E7F0B59BB00746C3
:1035D8000D4614461060516004F099F906460DB185
:1035E800022845D90C222946384603F09BFF019052
:1035F800E06194F82030002B46D194F84830002B35
:1036080040F0E98094F85830002B40F0248194F879
:103618003B30002B40F05B8194F86C30002B40F07D
:10362800C581FC2E22D894F8203006FB03F31B1228
:1036380084F8203094F83B3006FB03F31B1284F81F
:103648003B3094F8483006FB03F31B1284F84830EB
:1036580094F86C3006FB03F31B1284F86C3094F872
:10366800580000FB06F6361284F858601BB0F0BD0F
:10367800002384F8203084F83B3084F8483084F8FC
:10368800583084F86C30F1E71D222946384603F09B
:1036980049FF0190C0B284F820000228ADD91C224D
:1036A8002946384603F03EFF02460490294638462C
:1036B80003F0C7FF0190ADF80C00030C8DF80E3035
:1036C800039BADF808301B0C8DF80A30BDF80820B4
:1036D800DBB2A4F8212084F8233026222946384674
:1036E80003F020FF019018B1C37A13F0070F6BD1D4
:1036F80020222946384603F015FF019094F82F3010
:1037080060F3020384F82F30DBB213F0070F3FF4A5
:1037180074AF1C222946384603F004FF02460A907B
:103728002946384603F08DFF0190ADF82400030CBC
:103738008DF82630099BADF820301B0C8DF822300F
:10374800089BA3841B0C84F826302322294638467C
:1037580003F0E8FE024607902946384603F071FF59
:103768000190ADF81800030C8DF81A30069BADF8DF
:1037780014301B0C8DF81630BDF81420DBB2A4F8F9
:10378800292084F82B3021222946384603F0CAFE26
:10379800019084F8280022222946384603F0C2FE08
:1037A800019084F82D0024222946384603F0BAFEF9
:1037B800019084F8270025222946384603F0B2FEF6
:1037C800019084F82C0018E70C22014604F124002B
:1037D8001DF0C6F911E730222946384603F0A2FE4B
:1037E8000190606400283FF40DAF32222946384624
:1037F80003F098FE0190C0B284F8480002287FF6D2
:1038080001AF34222946384603F08CFE019094F823
:10381800493060F3040384F8493031222946384698
:1038280003F080FE02460D902946384603F009FF52
:103838000190ADF83000030C8DF832300C9BADF8D8
:103848002C301B0C8DF82E30BDF82C20DBB2E28713
:1038580084F84030D6E638222946384603F062FE1E
:103868000190206500283FF4D2AE3A222946384616
:1038780003F058FE0190C0B284F8580002287FF681
:10388800C6AE3B222946384603F04CFE01906065DF
:1038980039222946384603F045FE0246109029464B
:1038A800384603F0CEFE0190ADF83C00030C8DF8CD
:1038B8003E300F9BADF838301B0C8DF83A30BDF810
:1038C8003820DBB2A4F84A2084F84C309FE628223E
:1038D8002946384603F026FE0190206300283FF46D
:1038E8009BAE29222946384603F01CFE0190C0B23F
:1038F80084F83B0002287FF68FAE206B07F0B2FCFD
:1039080002282FD02A222946384603F00BFE024609
:1039180016902946384603F094FE0190ADF85400FD
:10392800030C8DF85630159BADF850301B0C8DF8F4
:103938005230149B23871B0C84F83A302B222946DB
:10394800384603F0EFFD019084F83C002C2229460C
:10395800384603F0E7FD0190003818BF012084F8CD
:103968003D0059E65A222946384603F0DBFD01900E
:10397800606358222946384603F0D4FD0246139066
:103988002946384603F05DFE0190ADF84800030C67
:103998008DF84A30129BADF844301B0C8DF8463038
:1039A800119B23871B0C84F83A3035E63C222946C4
:1039B800384603F0B7FD0190E06500283FF431AECA
:1039C80094F86C30022B7FF62CAE3E2229463846FE
:1039D80003F0A8FD0190C3B284F86C30022B7FF687
:1039E80020AE40222946384603F09CFD019020660F
:1039F80041222946384603F095FD0190606642222F
:103A08002946384603F08EFD0190A0663D222946DE
:103A1800384603F087FD024619902946384603F0D8
:103A280010FE0190ADF86000030C8DF86230189B11
:103A3800ADF85C301B0C8DF85E30BDF85C20DBB255
:103A4800A4F8592084F85B30EBE570B584B00646DD
:103A58000D46144610605160592203F063FD009032
:103A6800C3B284F84830022B01D804B070BD29468F
:103A7800304603F04CFFFC2806D894F8483003FB86
:103A880000F0001284F8480094F84830022BECD972
:103A980058222946304603F045FD02460390294640
:103AA800304603F0CEFD0090ADF80800030C8DF809
:103AB8000A30029BADF804301B0C8DF80630019BD0
:103AC800A3851B0C84F82E305B222946304603F070
:103AD80029FD0090E0635C222946304603F022FD70
:103AE8000090A0635D222946304603F01BFD00903C
:103AF80094F84C3060F3020384F84C307DB95A22B4
:103B08002946304603F00EFD009020625E222946C9
:103B1800304603F007FD009084F84A00A5E76722C5
:103B28002946304603F0FEFC009094F84C3060F3D0
:103B3800C50384F84C30E2E770B584B005460E46FC
:103B4800144610605160442203F0ECFC0090C3B2AC
:103B580084F84C30022B01D804B070BD3146284699
:103B680003F0D5FEFC2806D894F84C3003FB00F08F
:103B7800001284F84C0094F84C30022BECD9002346
:103B8800E3624FF4807323636363EB696A699B1A8A
:103B9800013303EBD3735B1023642B6AAA699B1A66
:103BA800013303EBD3735B10636446223146284626
:103BB80003F0B8FC009084F84B00452231462846B3
:103BC80003F0B0FC024603903146284603F039FD65
:103BD8000090ADF80800030C8DF80A30029BADF890
:103BE80004301B0C8DF80630019BA4F848301B0CE0
:103BF80084F84A30002EAFD067223146284603F0B9
:103C080091FC009094F84D3060F3030384F84D3034
:103C1800A2E770B584B006460D46144610605160A0
:103C28004D2203F07FFC0090C3B284F83C30022B95
:103C380001D804B070BD2946304603F068FEFC2860
:103C480006D894F83C3003FB00F0001284F83C00DE
:103C580094F83C30022BECD948222946304603F030
:103C680061FC009020630028E3D04C2229463046AE
:103C780003F058FC024603902946304603F0E1FC65
:103C88000090ADF80800030C8DF80A30029BADF8DF
:103C980004301B0C8DF80630019BA3851B0C84F89F
:103CA8002E3049222946304603F03CFC00906063E0
:103CB80010BB4B222946304603F034FC00900038F4
:103CC80018BF012094F83D3060F3820384F83D303A
:103CD800DBB260F3C30384F83D30002DA9D067221E
:103CE8002946304603F01EFC009094F83D3060F3FE
:103CF800010384F83D309CE74A222946304603F008
:103D080011FC0090A063D4E770B584B005460E4658
:103D1800144610605160502203F004FC00902062A9
:103D280008B904B070BD53223146284603F0FAFBA7
:103D38000090C0B284F83C000228F2D931462846E7
:103D480003F0E5FDFC2806D894F83C3003FB00F0AE
:103D5800001284F83C0094F83C30022BE1D952223E
:103D68003146284603F0DEFB0246039031462846DA
:103D780003F067FC0090ADF80800030C8DF80A30DA
:103D8800029BADF804301B0C8DF80630019BA38311
:103D98001B0CA37754223146284603F0C3FB00903E
:103DA800A06351223146284603F0BCFB009000383E
:103DB80018BF012094F83D3060F3000384F83D30CB
:103DC800AFE72DE9F04182B006460F463C2203F0EA
:103DD800A9FB01908046F8B938223946304603F0ED
:103DE800A1FB05460190002847D168223946304694
:103DF80003F098FB0446019069223946304603F0E7
:103E080091FB0190A042B8BF2046002800DD804405
:103E1800404602B0BDE8F0813E223946304603F004
:103E280081FB0190C0B2022802D84FF00008D3E706
:103E380008EBD8746410013442223946304603F046
:103E480071FB0190044440223946304603F06AFB76
:103E58000546019041223946304603F063FB019044
:103E68000028B8BF4042002DB8BF6D42A842ACBF81
:103E78002418641924EAE478AEE73A223946304631
:103E880003F050FB0190C0B20228AED93B2239465C
:103E9800304603F047FB01900544A845B8BFA84643
:103EA800A3E783680BB1586A70470020704730B5A4
:103EB80083B00446FFF7F5FF05460023019301AAE6
:103EC8001821204600F0E2F8A36833B1019A5A623B
:103ED800019BAB420BD103B030BD019B002BF7D047
:103EE8002046FFF766FAA368019A5A62F0E720466F
:103EF80000F0C8FFEFE7836823B193F82B00C0F305
:103F08008100704700207047037E13F0040F55D1DD
:103F180010B504460389283B012B01D8012010BDA8
:103F28004FF480410068FEF7BAFF0028F7D02389D4
:103F3800133B1E2BF3D801A252F823F0C13F00080F
:103F4800273F0008273F0008273F0008C13F000817
:103F5800C13F0008C13F0008C13F0008C13F000839
:103F6800C13F0008C13F0008C13F0008C13F000829
:103F7800273F0008273F0008C13F0008273F0008E7
:103F8800273F0008273F0008C13F0008C13F00083D
:103F9800C13F0008C13F0008273F0008273F00082D
:103FA800273F0008273F0008C13F0008C13F00081D
:103FB800273F0008C13F00080020B0E700207047F5
:103FC80010B50C4608B1006803E00B68186800E0FB
:103FD800006810B1C368002BFAD060B1C36863B140
:103FE8000023E360C36821469847237E13F0010F3E
:103FF80005D1012010BD0120FCE70120FAE70020CF
:10400800F8E770B5044616F0ADF830B1237E13F02A
:10401800020538D113F0010F36D123689E6806B126
:10402800083601222146304619F04CFF0546012882
:104038002AD1237E13F0020F26D121460020FFF754
:10404800BFFF054601281FD1237E13F0020F1BD1A5
:1040580000222146304619F035FF0546012813D1C4
:10406800237E13F0020F0FD1206804F046FA0646AB
:1040780050B12046FFF748FF30B126602046FFF7D1
:10408800C0FF054600E00125284670BD10B588B080
:1040980018B301900290ADF80C1000230493059218
:1040A8009DF81C2063F300028DF81C20D2B263F344
:1040B80082028DF81C20D2B263F341028DF81C20D5
:1040C80001A819F0F1FE01A8FFF79BFF044601A81B
:1040D80019F0F2FE204608B010BD0124FAE7F8B541
:1040E80007460C4615461E46FFF763F9B86833467F
:1040F8002A462146083019F01DFFF8BD08B5038986
:104108005A1E92B2082A11D90B2B0FD00C2B0DD0A6
:104118000D2B0BD00E2B09D0102B07D0112B05D04F
:10412800122B03D0152B01D0162B02D119F03FFF0B
:1041380008BD0020FCE708B50289A2F119039BB26B
:10414800022B05D91D2A03D01C2A01D01E2A02D110
:1041580019F02DFF08BD0020FCE708B503890E2BD8
:1041680001D0002008BD19F022FF08B10068F9E766
:104178000020F7E708B503890F2B01D0002008BD00
:1041880019F015FF08B10068F9E70020F7E703897F
:10419800182B00D0704710B50C4619F008FF0168BD
:1041A800A142B8BF2146016010BD00002DE9F04FC3
:1041B80089B00646894692461F466E22002103F0C2
:1041C800B1F98046059083466C220021304603F001
:1041D800A9F9059004B204B901246D2200213046E2
:1041E80003F0A0F9059005B205B9012504B9012429
:1041F80005B90125B8F1000F02D1B4F5807F3AD096
:104208006F220021304603F08DF905900690702248
:104218000021304603F086F905900790069B03F0CD
:10422800C042B2F1005F2AD000F0C043B3F1005F92
:1042380041D07369069A13440693B369079A1344E5
:1042480007934FB1C8F1000B4FF6FF73E21892FBCA
:10425800F4F42B4493FBF5F587F00107029706ABBE
:104268000193009523465A465146484619F0ACFB3F
:1042780009B0BDE8F08FB5F5807FC1D1F8E723F02C
:10428800C0436FF060429342CEDAB3F1805F05DB42
:10429800C3F17F6303F57F2303F6FF73F269716946
:1042A800521A02FB0333124A82FB0312DB17C3EBD9
:1042B80062130693B8E720F0C0406FF0604398425D
:1042C800B7DAB0F1805F05DBC0F17F6000F57F20D1
:1042D80000F6FF70336AB2699B1A03FB0000044BB7
:1042E80083FB0023C017C0EB63100790A1E700BF52
:1042F8001F85EB5130B583B005460C46002301AA53
:10430800082103F07DF9012807D020B900222146B1
:10431800284604F021F803B030BD019BA342F5D133
:10432800F3E730B583B005460C46002301AA0921FE
:1043380003F066F9012807D020B900222146284653
:1043480004F015F803B030BD019BA342F5D1F3E7A3
:1043580038B504461546FFF7CDFF29462046FFF736
:10436800E0FF38BD30B583B005460C46002301AAEE
:10437800012103F045F9012807D020B90022214680
:10438800284603F0C8FF03B030BD019BA342F5D116
:10439800F3E730B583B005460C46002301AA022195
:1043A80003F02EF9012807D020B90022214628461B
:1043B80003F0C7FF03B030BD019BA342F5D1F3E77B
:1043C80038B504461546FFF7CDFF29462046FFF7C6
:1043D800E0FF38BD30B583B004460C49FEF766FDF2
:1043E80018B10025284603B030BD0546204604F024
:1043F80084F80028F6D01622002103F093F80190E3
:1044080080B20028EED00125ECE700BF01000600CD
:1044180008B590F82A2042F0010280F82A2004F01A
:1044280070F890F82A2042F0040280F82A2004F05C
:1044380071F80022352105F053FD08BD10B504467A
:10444800002289B203F0FDFF2046FFF7E1FF10BD0F
:1044580070B5044615461E46002203F093FF324607
:1044680029462046FFF774FF70BD43690B608369D6
:104478004B60C3698B60036ACB6070472DE9F041DC
:1044880082B0044604F039F830B3054664694069DF
:10449800241A284601F0D2FC04441222002128469E
:1044A80003F040F806460190804630220021284655
:1044B80003F038F80746019034220021284603F01B
:1044C80031F8019010F0040F01D006EB0708A4EBB7
:1044D800080002B0BDE8F0816069FAE72DE9F04113
:1044E80082B0044604F009F830B30546A46980692F
:1044F800241A284601F0A9FC044410220021284669
:1045080003F010F806460190804630220021284624
:1045180003F008F80746019034220021284603F0EA
:1045280001F8019010F0020F01D006EB0708A4EB88
:10453800080002B0BDE8F081A069FAE700B583B0D1
:104548000922002102F0EEFF019003B05DF804FBA0
:10455800C3694069181A01307047036A8069181ADC
:104568000130704738B50546FFF7B8FF04462846BE
:10457800FFF7F3FF204438BD2DE9F04182B004462F
:104588001222002102F0CEFF054601900646302295
:104598000021204602F0C6FF074601903422002180
:1045A800204602F0BFFF019010F0040F00D0EE1972
:1045B80013220021204602F0B5FF054601908046EF
:1045C80030220021204602F0ADFF07460190342238
:1045D8000021204602F0A6FF019010F0080F01D03C
:1045E80005EB07082046FFF7B3FF801BA0EB080088
:1045F80002B0BDE8F0812DE9F04182B004461022F6
:10460800002102F08FFF0546019006463022002166
:10461800204602F087FF07460190342200212046F9
:1046280002F080FF019010F0020F00D0EE19112265
:104638000021204602F076FF054601908046302290
:104648000021204602F06EFF074601903422002127
:10465800204602F067FF019010F0010F01D005EB32
:1046680007082046FFF779FF801BA0EB080002B07F
:10467800BDE8F0812DE9F04182B004460D46FFF710
:10468800F4FE12220021204602F04CFF064601905B
:10469800804630220021204602F044FF0746019060
:1046A80034220021204602F03DFF019010F0040F53
:1046B80001D006EB07082B6843442B601322002126
:1046C800204602F02FFF0646019080463022002146
:1046D800204602F027FF0746019034220021204699
:1046E80002F020FF019010F0080F01D006EB070838
:1046F800AB68A3EB0803AB6010220021204602F050
:1047080011FF06460190804630220021204602F023
:1047180009FF0746019034220021204602F002FFDB
:10472800019010F0020F01D006EB07086B684344B4
:104738006B6011220021204602F0F4FE064601902B
:10474800804630220021204602F0ECFE0746019008
:1047580034220021204602F0E5FE019010F0010FFE
:1047680001D006EB0708EB68A3EB0803EB6002B087
:10477800BDE8F08100B583B000230093044B01939A
:104788006A463121FFF782FC009803B05DF804FB0C
:10479800010000E02DE9F04F85B0044601F04EFB22
:1047A8000190A3680BB100229A61132200212046D0
:1047B80002F0B8FE054603908346302200212046C9
:1047C80002F0B0FE0646039034220021204602F093
:1047D800A9FE039010F0080F01D005EB060B12227A
:1047E8000021204602F09EFE0546039000903022EC
:1047F8000021204602F096FE06460390342200214E
:10480800204602F08FFE039010F0040F01D0AB1980
:1048180000932046FFF7AEFF009B00EB030ADA4443
:10482800204603F0DAFE814627220021204602F0C6
:1048380079FE0390C0B201285AD00025664F7EE069
:104848000A220021304602F06DFE0390C0B208280B
:104858000CD8DFE800F0050B0B050B0B050B05006A
:10486800E36972699B1A03F101082FE0082200210D
:10487800304602F057FE039010B1DFF85C8125E066
:10488800F3697269A3EB020808F10108D8441A22F7
:104898000021304602F046FE0390804416E00135C0
:1048A8004D4528D2A3681B6853F825604B4930460C
:1048B800FEF7FCFA0028F2D13046FFF78BFD0028FE
:1048C800BED0E36972699B1A03F101081A2200211C
:1048D800304602F027FE03904044B842DFDB1A223C
:1048E8000021304602F01EFE039008EB0007D6E7D1
:1048F8000025394FD4E7384B9F425ED0009B1F44B8
:104908005BE00A220021304602F00CFE0390C0B2A0
:1049180007282BD8012303FA00F010F0930F25D0B5
:10492800F36962699B1A03F101081B2200213046D2
:1049380002F0F8FD03904044B84231DA01354D45A4
:1049480037D2A3681B6853F8256024493046FEF720
:10495800ADFA0028F2D13046FFF73CFD0028D0D050
:10496800F36962699B1A03F10108DEE70922002155
:10497800304602F0D7FD039010B1DFF85C80D4E731
:10498800F3697269A3EB020808F10108009B9844D7
:104998001B220021304602F0C5FD03908044C4E785
:1049A8001B220021304602F0BDFD039008EB0007F2
:1049B800C4E7094B9F4200D05F44A36813B1019A32
:1049C80050429861044B9F4202D0BA45B8BFBA46DC
:1049D800504605B0BDE8F08F010000E0010004007A
:1049E80000B583B0054B0093002301936A4631213B
:1049F800FFF74CFB019803B05DF804FB010000E0F1
:104A08002DE9F04F85B0064601F01FFA0190B36812
:104A18000BB10022DA6110220021304602F082FD3B
:104A280004460390009030220021304602F07AFDBF
:104A38000546039034220021304602F073FD0390AE
:104A480010F0020F01D063190093112200213046A3
:104A580002F068FD04460390834630220021304668
:104A680002F060FD0546039034220021304602F032
:104A780059FD039010F0010F01D004EB050B3046EF
:104A8800FFF7AEFF009B00EB030ADA44304603F061
:104A9800A4FD81460024DFF8C08016E00A22002128
:104AA800284602F03FFD0390C0B2032823D82F6A9E
:104AB800B369FF1A013719220021284602F032FD96
:104AC8000390384440452DDA01344C4533D2B3685D
:104AD8001B6853F8245021492846FEF7E7F90028B7
:104AE800F2D12846FFF776FC0028D7D02F6AB369A1
:104AF800FF1A0137DFE709220021284602F012FDDC
:104B0800039008B1144FD6E72B6AAF69DF1B013752
:104B1800009B1F4418220021284602F003FD039041
:104B28000744C8E719220021284602F0FBFC03903D
:104B380007EB0008C8E7B36813B1019A5042D8617F
:104B4800054B984503D0D844C245B8BFC246504625
:104B580005B0BDE8F08F00BF010000E001000400CF
:104B680030B583B005460122002102F0DBFC044683
:104B7800019002220021284602F0D4FC01906FF037
:104B880040439C4201D0984205D12846FFF740FC9B
:104B9800012003B030BD0020FBE72DE9F047824635
:104BA8000F461646994603F018FD8046002512E088
:104BB80063693B446361A3693344A361E3693B448C
:104BC800E361226A32442262002332463946204693
:104BD800FFF7E3FF013545450FD2DAF808301B68C7
:104BE80053F82540B9F1000FE2D04FF48021204658
:104BF800FEF755F90028DBD0ECE7BDE8F087002880
:104C08003FD02DE9F0470F4616461C468046FFF771
:104C180072F9054604F0010904F00203002B14BFE1
:104C28004FF0010A4FF0000A16D0B9F1000F03D176
:104C3800022D0AD0BDE8F087404603F05EFC23460B
:104C480032463946FFF7DBFFF2E75346324639462C
:104C58004046FFF7ABFAEDE702280BD0B9F1000F99
:104C6800E8D0404603F049FC234632463946FFF770
:104C7800C6FFDFE75346324639464046FFF796FA05
:104C8800ECE7704708B513460122FFF7B8FF08BDE7
:104C980070B588B00C46134609680091666801969D
:104CA8000291E16801310391A568013504950596E3
:104CB8000695079104226946FFF7A1FF069B049D0C
:104CC8001946AB42A8BF2946029A00981646824266
:104CD800A8BF0646B142A8BF31462160AB42B8BF63
:104CE8002B468242B8BF02469342B8BF1346A36020
:104CF800079B059D1946AB42A8BF2946039A019810
:104D080016468242A8BF0646B142A8BF3146616036
:104D1800AB42B8BF2B468242B8BF02469342B8BFE7
:104D28001346E36008B070BD2DE9F04188B0044631
:104D38000D460121FEF7B3F820B10026304608B031
:104D4800BDE8F0810746204603F0DBFB064603F08A
:104D5800E1FB804604F093FF864215D0404604F0FC
:104D68009BFF864210D0404604F0BDFF86420BD020
:104D7800404604F09EFF864206D0404604F0A6FF57
:104D8800864201D03E46D9E72046FFF78AF8014619
:104D980063690493A3690593E3690693236A0793F8
:104DA800024604A818F02FFA04AA2946284618F043
:104DB80044FA06460028C1D0012229462046FFF7BA
:104DC80067FF204603F099FB04460EE0012269467E
:104DD8002046FFF75DFF6A462946284618F02DFA57
:104DE80000B3204603F089FB0446002CA6D001211D
:104DF8002046FEF754F8A8B9EC4604F114030FCB8B
:104E08008CE80F004FF480112046FEF748F8002880
:104E1800DCD02046FFF745F801460246684618F000
:104E2800F2F9D3E73E4689E730B585B005460C462A
:104E380003F070FB05F092F808B905B030BD23689F
:104E4800009363680193A3680293E3680393694638
:104E58002846FFF769FF0028EFD0AB682BB193F81D
:104E68002B3003F00C03082B06D0284603F052FB26
:104E7800694604F0F7FCE0E705221146684618F099
:104E8800C2F9F2E730B585B00446FFF70AF8616960
:104E98000091A2690192E3690293256A0395091AB0
:104EA8000091121A01920344029328440390694620
:104EB8002046FFF7B9FF05B030BD2DE9F0478CB0AB
:104EC80004460D4616464768002F40D04FF480210F
:104ED800FDF7E5FF00285AD079690D44BA6902EB5D
:104EE800060912220021384602F01CFB06460190F2
:104EF800824630220021384602F014FB8046019099
:104F080034220021384602F00DFB019010F0040F06
:104F180001D006EB080A554410220021384602F059
:104F280001FB80460190064630220021384602F0F7
:104F3800F9FA8246019034220021384602F0F2FA4A
:104F4800019010F0020F01D008EB0A064E44616987
:104F58006D1A0A95A269B61A0B960DB9002E52D091
:104F68002046FFF78FFF06A92046FFF77EFAFFB11C
:104F780002A93846FFF77EFB002202A906A818F00E
:104F88003FFA8046B0B9384601F0D8FF12E0D7F8AA
:104F98001480384600F052FFA8EB00084544D7F8C3
:104FA8001890384600F051FFA9EB0009B14498E782
:104FB8004FF0000863692B446361A3693344A3611C
:104FC800E3692B44E361236A3344236200233246B6
:104FD80029462046FFF7E1FD27B12246272138461A
:104FE800FFF754F82046FFF74DFF67B1002202A9EA
:104FF80004F1140018F004FAB8F1000F00D110B150
:10500800384601F09BFF0CB0BDE8F0872DE9F04F62
:1050180087B00446FFF7DEF910B107B0BDE8F08F9E
:10502800204603F06AFA074608220021204602F0CB
:1050380079FA06460590804609220021204602F0AA
:1050480071FA054605908246002F47D03846FFF78B
:1050580093FA00903846FFF7CEFA029006F0C04364
:10506800B3F1005F40D005F0C043B3F1005F54D006
:105078006A220021204602F055FA0646059083462A
:105088006B220021204602F04DFA05460590814624
:105098002046FFF75DFA01902046FFF75EFA03907D
:1050A80006F0C043B3F1005F50D005F0C043B3F140
:1050B800005F64D0D844D1440A220021204602F07F
:1050C80031FA059010F0FF0072D00238072878D81E
:1050D800DFE800F07D88989DAC8DB5C40246314666
:1050E8002046FFF7EAFE98E726F0C0466FF06043D7
:1050F8009E42B8DAB6F1805F05DBC6F17F6606F539
:105108007F2606F6FF76009B03FB06F65E4B83FBC5
:105118000638F617C6EB6818A5E725F0C0456FF006
:1051280060439D42A4DAB5F1805F05DBC5F17F6578
:1051380005F57F2505F6FF75029B03FB05F5524B28
:1051480083FB053AED17C5EB6A1A91E726F0C046CE
:105158006FF060439E42A8DAB6F1805F05DBC6F1C6
:105168007F6606F57F2606F6FF76019B03FB06F6AB
:10517800454B83FB063BF617C6EB6B1B95E725F003
:10518800C0456FF060439D4294DAB5F1805F05DB5E
:10519800C5F17F6505F57F2505F6FF75039B03FBC4
:1051A80005F5394B83FB0539ED17C5EB691981E71F
:1051B80027220021384602F0B5F90590C0B201282F
:1051C80010D04A4641462046FFF777FE25E7009B68
:1051D80003EBD370019B03EBD3735B10C3EB60034A
:1051E8009844EEE7009B019A981A8044E9E7029BED
:1051F80003EBD370039B03EBD3735B10C3EB600328
:105208009944DEE7029B039A981A8144D9E7009BE8
:1052180003EBD370019B03EBD3735B10C3EB600309
:105228009844029B039A981A8144CAE7009B019A02
:10523800981A8044029B039A981A8144C1E7009BFC
:10524800019A981A8044029B03EBD370039B03EBEB
:10525800D3735B10C3EB60039944B2E7009B03EB85
:10526800D370019B03EBD3735B10C3EB60039844CB
:10527800029B03EBD370039B03EBD3735B10C3EB6D
:10528800600399449DE700BF1F85EB5130B585B099
:105298000446FEF706FE61690091A2690192E3697E
:1052A8000293256A0395091A0091121A0192034480
:1052B80002932844039069462046FFF735FD05B060
:1052C80030BD38B505460C46FEF773F8AB681C626E
:1052D80038BD08B542690A6082694A60C2698A6055
:1052E800026ACA60836823B10846196A0A4617F039
:1052F8008AFF08BD00B501F0C04CBCF1005F0CD0BE
:1053080002F0C04CBCF1005F20D09042A8BF10460C
:105318008842B8BF08465DF804FB21F0C04C6FF026
:10532800604EF445ECDABCF1805F05DBCCF17F6CB4
:105338000CF57F2C0CF6FF7C03FB0CFC0F4981FB62
:105348000CE14FEAEC7CCCEB6111D9E722F0C04CC0
:105358006FF0604EF445D8DABCF1805F05DBCCF124
:105368007F6C0CF57F2C0CF6FF7C03FB0CF3034AD7
:1053780082FB03C2DB17C3EB6212C6E71F85EB5142
:1053880000B501F0C04CBCF1005F0CD002F0C04C7D
:10539800BCF1005F20D09042A8BF10468842B8BF39
:1053A80008465DF804FB21F0C04C6FF0604EF445F0
:1053B800ECDABCF1805F05DBCCF17F6C0CF57F2C5F
:1053C8000CF6FF7C03FB0CFC0F4981FB0CE14FEA58
:1053D800EC7CCCEB6111D9E722F0C04C6FF0604E49
:1053E800F445D8DABCF1805F05DBCCF17F6C0CF5B5
:1053F8007F2C0CF6FF7C03FB0CF3034A82FB03C2F1
:10540800DB17C3EB6212C6E71F85EB5190F82B3010
:1054180003F00C030C2B00F0CA812DE9F04F8BB080
:10542800044603F06AF80546002800F0C28194F8A3
:105438002B3013F0080F63D02046FFF789F8064693
:1054480094F82B3013F0040F00F000812046FFF78A
:1054580084F880462046FFF77BF8B04205D1204605
:10546800FFF77BF8404500F0A6812046FFF70AFDCC
:1054780006A92046FEF7F9FF02A92846FFF7FAF821
:10548800002202A906A817F0BBFF0746002800F073
:105498008581A3694344013B2362272200212046DA
:1054A80002F040F80190C3B2012B00F07B816069E3
:1054B80030440138E06106AA2E212046FEF7E6FDB9
:1054C800224627212846FEF7E1FD2046FFF7DAFCB1
:1054D80094F82A3043F0020384F82A30002202A903
:1054E80004F1140017F08CFF07B910B1284601F039
:1054F80025FD2046FEF7DBFC01200BB0BDE8F08F50
:1055080001220021204602F00DF80646019080464F
:1055180000F0C043B3F1005F49D000239946284604
:10552800FFF72AF807466FF040439E4249D0B9F189
:10553800000F27D095F82B3013F0080F46D026F02F
:10554800C046B6F1805F05DBC6F17F6606F57F26AB
:1055580006F6FF7607FB06F6984880FB0630F61736
:10556800C6EB60161A220021204601F0DBFF8046B8
:1055780001901B220021204601F0D4FF01904044F5
:10558800A6EB000804220021204601F0CBFF0646C6
:10559800019005220021204601F0C4FF0246019037
:1055A8003B4631464046FFF7A5FE064648E720F051
:1055B800C0426FF060439A4201DB0023AEE701234B
:1055C800ACE72046FFF7E6F88046DBE7012200213A
:1055D800284601F0A7FF01906FF040439842AED1F2
:1055E80012220021204601F09DFF064601908046C8
:1055F80030220021204601F095FF81460190342297
:105608000021204601F08EFF019010F0040F01D018
:1056180006EB090813220021204601F083FF064605
:105628000190824630220021204601F07BFF81460E
:10563800019034220021204601F074FF019010F0FF
:10564800080F01D006EB090AD0449BE7022200218B
:10565800204601F067FF07460190814600F0C043ED
:10566800B3F1005F49D04FF0000A2846FEF7C3FFA8
:1056780080466FF040439F424BD0BAF1000F27D0CD
:1056880095F82B3013F0040F48D027F0C047B7F136
:10569800805F05DBC7F17F6707F57F2707F6FF7790
:1056A80008FB07F7454880FB0730FF17C7EB601773
:1056B80018220021204601F035FF81460190192269
:1056C8000021204601F02EFF01904844A7EB000975
:1056D80006220021204601F025FF074601900722F7
:1056E8000021204601F01EFF02460190434639463C
:1056F8004846FFF745FE8046ACE620F0C0426FF012
:1057080060439A4202DB4FF0000AAEE74FF0010A0D
:10571800ABE72046FFF774F98146D9E7022200215A
:10572800284601F0FFFE01906FF040439842ACD14B
:1057380010220021204601F0F5FE0746019081461F
:1057480030220021204601F0EDFE824601903422ED
:105758000021204601F0E6FE019010F0020F01D072
:1057680007EB0A0911220021204601F0DBFE07465B
:105778000190834630220021204601F0D3FE824664
:10578800019034220021204601F0CCFE019010F057
:10579800010F01D007EB0A0BD94499E7284601F01D
:1057A800CDFB76E6E3699B1B0133636183E600204A
:1057B80070470020A1E600209FE600BF1F85EB513F
:1057C80070B5054602F009FF0646002406E0AB68FE
:1057D8001B6853F82400FFF7F3FF0134B442F6D3F3
:1057E80095F82A3013F0010F05D195F82A3013F0F7
:1057F800020F12D170BD95F82A306FF3000385F8B7
:105808002A302846FFF702FE2846FFF7FFFB002E46
:10581800EBD0284616F096F9E7E795F82A306FF3AB
:10582800410385F82A300021284601F0AAFBE1E768
:10583800104B93F8603003B1704710B50D4B01223F
:1058480083F8602002F05DFE044608E094F82A30F0
:105858006FF3820384F82A302046FFF7B1FF94F8EB
:105868002A3013F0040FF1D1024B002283F8602094
:1058780010BD00BF608D00202DE9F04F87B00646AF
:105888000C4601921F46FFF7D3FF002C00F08A80D8
:10589800304602F032FE05461222002101F042FE97
:1058A80080460590029030220021284601F03AFEF9
:1058B8008146059034220021284601F033FE0590E8
:1058C80010F0040F02D008EB090302931022002104
:1058D800284601F027FE80460590824630220021A6
:1058E800284601F01FFE81460590342200212846F3
:1058F80001F018FE059010F0020F01D008EB090A1C
:1059080012220021204601F00DFE804605908346B4
:1059180030220021204601F005FE81460590342200
:105928000021204601F0FEFD059010F0040F01D083
:1059380008EB090B10220021204601F0F3FD8146F7
:105948000590804630220021204601F0EBFD0390AF
:10595800059034220021204601F0E4FD059010F066
:10596800020F02D0DDF80C80C844019BFBB1019BFB
:105978005A1E142A5FD8DFE812F023008100910034
:105988009C00A700C100D600E600620000010801E3
:105998001C012B013201450153015B016F017E019E
:1059A80085019801304602F0A8FD044670E72722D9
:1059B8000021204601F0B6FD0590C0B201286DD047
:1059C80007F0C043B3F1005F00F07D81109B03F046
:1059D800C043B3F1005F00F09381272200212846DD
:1059E80001F0A0FD0590C0B2012800F0A88163690C
:1059F8001F446B69FF1A284600F0AEFA3844029B30
:105A0800C01A8344A469109B1C44AB69E41A284655
:105A180000F022FA0444A4EB0A04444400220121C1
:105A2800304602F0AFFC224659463046FEF790FC5D
:105A380007B0BDE8F08F4FF00008C346C0E7204626
:105A4800FEF79AFD00EBD0704FEA60093046FEF78A
:105A58007FFD00EBD070A9EB600083442046FEF781
:105A6800CAFD00EBD0704FEA60093046FEF775FDBD
:105A780000EBD070A9EB60008044A1E72046FEF758
:105A88007BFD00EBD0704FEA60093046FEF760FD01
:105A980000EBD070A9EB6000834491E72046FEF745
:105AA8006BFD81463046FEF753FDA9EB0009CB4458
:105AB80086E72046FEF79FFD81463046FEF74DFDFE
:105AC800A9EB0009C8447BE72046FEF755FD00EB2B
